:020000040800F2
:1000000068070020AD050008B1030008B30300082D
:10001000B7030008BB030008BF030008000000008E
:10002000000000000000000000000000C303000802
:10003000C503000800000000C7030008C90300084A
:10004000C7050008C7050008C7050008071A00080B
:10005000C7050008C7050008C7050008C705000850
:10006000C7050008C7050008C7050008C705000840
:10007000C7050008C7050008C7050008C705000830
:10008000C7050008C7050008C7050008C705000820
:10009000C7050008C7050008C7050008C705000810
:1000A000C7050008C7050008C7050008C705000800
:1000B000C7050008C7050008C7050008C7050008F0
:1000C000C7050008C7050008C7050008C7050008E0
:1000D000C705000845160008C7050008C705000841
:1000E000C7050008C7050008C7050008C7050008C0
:1000F000C7050008C7050008C7050008C7050008B0
:10010000C7050008C7050008C7050008C70500089F
:10011000C7050008C7050008C7050008C70500088F
:10012000C7050008C7050008C7050008C70500087F
:1001300000F002F800F03FF80AA090E8000C8244BA
:100140008344AAF10107DA4501D100F034F8AFF297
:10015000090EBAE80F0013F0010F18BFFB1A43F0A5
:1001600001031847701B0000901B0000103A24BFC9
:1001700078C878C1FAD8520724BF30C830C144BF0C
:1001800004680C607047000000230024002500264E
:10019000103A28BF78C1FBD8520728BF30C148BFEA
:1001A0000B607047642901F09384002070471FB5ED
:1001B0001FBD10B510BD01F051FD1146FFF7F7FF4F
:1001C00000F043F801F06FFD03B4FFF7F2FF03BC4A
:1001D00001F0DAF908B50121042000F059FE4FF4CE
:1001E0008050ADF8000010208DF8030003208DF83A
:1001F00002006946424800F029FB4FF48051404814
:1002000000F0D1FB08BD10B54FF480513C4800F020
:10021000CCFBC82001F085F94FF48051384800F03C
:10022000C2FBC82001F07DF94FF48051344800F042
:10023000BCFBC82001F075F94FF48051304800F044
:10024000B2FBC82001F06DF910BD01F097F9FFF77E
:10025000C1FF01F029F94FF4165001F0A4F909E0AB
:1002600028A001F0F5FB4FF4487001F05AF929A0DD
:1002700001F0EEFB01F069FB0028F1D1FFF7C3FFAD
:100280003CE028488078A04235D026488478C3795D
:100290008279818824A001F0DBFB2248007A0728BC
:1002A00021D2DFE800F004080C1014181C0025A06F
:1002B00001F0CEFB17E026A001F0CAFB13E027A057
:1002C00001F0C6FB0FE028A001F0C2FB0BE029A063
:1002D00001F0BEFB07E02AA001F0BAFB03E02BA06F
:1002E00001F0B6FB00BF00BF0E488378427801786A
:1002F00029A001F0ADFB0A2001F013F9C1E70000CD
:1003000000080140525443204552524F5221200DC3
:100310000A00000052544320547279696E672E2EF1
:100320002E0D0A00FC0000202564207965617220F2
:100330002564206D6F6E7468202564206461746587
:100340000D0A000053756E6461790D0A000000000B
:100350004D6F6E6461790D0A00000000547565737D
:100360006461790D0A0000005765646E657364610D
:10037000790D0A0054687572736461790D0A000082
:100380004672696461790D0A00000000536174755A
:10039000726461790D0A0000256420686F7572200F
:1003A0002564206D696E202564207365630D0A0045
:1003B000704700BFFEE700BFFEE700BFFEE700BFDB
:1003C000FEE7704770477047704700000CB500208B
:1003D000019000906C48006840F480306A490860E1
:1003E00000BF6948006800F4003000900198401C8C
:1003F0000190009818B90198B0F5A06FF1D162484A
:10040000006800F4003010B10120009001E00020ED
:1004100000900098012843D15C48006840F010002B
:100420005A4908600846006820F003000860084642
:10043000006840F002000860534840685249486034
:100440000846406848600846406840F4806048605C
:100450000846406820F47C1048600846406840F434
:10046000E81048600846006840F08070086000BFEF
:100470004548006800F000700028F9D04248406804
:1004800020F00300404948600846406840F0020000
:10049000486000BF3C48406800F00C000828F9D1D3
:1004A0000CBD10B5FFF792FF10BD10B536480068BF
:1004B00040F001003449086008464068344908406B
:1004C0003149486008460068324908402E490860B2
:1004D0000846006820F4802008600846406820F440
:1004E000FE0048604FF41F008860FFF7DAFF4FF00E
:1004F00000602949086010BD10B5002100200022CD
:10050000214B5B6803F00C0121B1042906D00829B6
:1005100028D107E0214B224C236027E01F4B204CC1
:10052000236023E0184B5B6803F47010164B5B6884
:1005300003F48032022303EB904022B9194B43436A
:10054000174C23600DE0104B5B6803F4003323B1BC
:10055000144B4343124C236003E0104B4343104CB5
:10056000236003E00D4B0E4C236000BF00BF064B21
:100570005B68C3F303130C4CE15C094B1B68CB4075
:10058000074C236010BD0000001002400020024014
:100590000000FFF8FFFFF6FE08ED00E000127A0011
:1005A0000000002000093D000400002009488047A9
:1005B00009480047FEE7FEE7FEE7FEE7FEE7FEE745
:1005C000FEE7FEE7FEE7FEE704480549054A064B5D
:1005D00070470000AB0400083101000868010020EA
:1005E00068070020680300206803002031490143A8
:1005F000314A1160704770B5002100230F22C47882
:1006000004B32D4C246804F4E064C4F5E064210ACA
:10061000C1F10403CA40447804FA03F18478144019
:1006200021430901254C0678A155047804F01F05E3
:100630000124AC4005786D11AD0005F1E025C5F849
:10064000004109E0047804F01F050124AC401C4D72
:100650000678761145F8264070BD1A4A0A400243D2
:10066000154B1B1F1A60704739B1134A121D1268CF
:100670000243114B1B1D1A6006E00F4A121D12683F
:1006800082430D4B1B1D1A607047042808D14FF0A0
:10069000E021096941F004014FF0E022116107E017
:1006A0004FF0E021096921F004014FF0E0221161CF
:1006B000704700000000FA050CED00E000E400E0E7
:1006C00080E100E080FFFF1F10B5012000F014FC66
:1006D000002000F011FC10BD2A490860704729492C
:1006E000091F086070472749843108607047014638
:1006F0000020254A10884FF67F4210400843224AC6
:1007000010807047014600201F4A10884FF6807203
:10071000104008431C4A1080704708B50022009220
:10072000194A2C3A0092009A02440092009A1160F1
:1007300008BD08B501460020009013482C380090F1
:100740000098084400900098008808BD0D489C302F
:100750000068C0B270470C480830008840F00100C3
:1007600009490831088070470648A0300068C0B2C7
:10077000704705480830008840F0020002490831FF
:100780000880704704860D422C6C004010B504466A
:10079000CC48844208D10121042000F093FB0021C1
:1007A000042000F08FFB46E0C748844208D10121B5
:1007B000082000F087FB0021082000F083FB3AE0CE
:1007C000C248844208D10121102000F07BFB0021A7
:1007D000102000F077FB2EE0BD48844208D10121B3
:1007E000202000F06FFB0021202000F06BFB22E0B6
:1007F000B848844208D10121402000F063FB002169
:10080000402000F05FFB16E0B348844208D101218C
:10081000802000F057FB0021802000F053FB0AE00D
:10082000AE48844207D10121801500F04BFB002126
:10083000A01500F047FB10BD10B50121084600F0DF
:1008400041FB0021012000F03DFB10BD2DE9F041EE
:10085000024600250026002000230024002791F8EE
:1008600003C00CF00F0591F803C00CF0100CBCF1A4
:10087000000F03D091F802C04CEA050591F800C0C2
:10088000BCF1000F31D0146800202BE04FF0010CB8
:100890000CFA00F3B1F800C00CEA03069E4220D126
:1008A00083004FF00F0C0CFA03F7BC4305FA03FC6E
:1008B0004CEA040491F803C0BCF1280F06D14FF0B4
:1008C000010C0CFA00FCC2F814C00AE091F803C055
:1008D000BCF1480F05D14FF0010C0CFA00FCC2F836
:1008E00010C0401C0828D1D31460B1F800C0BCF17E
:1008F000FF0F34DD546800202EE000F1080C4FF0AB
:10090000010808FA0CF3B1F800C00CEA03069E4295
:1009100021D183004FF00F0C0CFA03F7BC4305FA0A
:1009200003FC4CEA040491F803C0BCF1280F05D184
:1009300000F1080C08FA0CF8C2F8148091F803C012
:10094000BCF1480F07D100F1080C4FF0010808FA7C
:100950000CF8C2F81080401C0828CED35460BDE8C3
:10096000F0814FF6FF710180022181700421C17076
:1009700070470246002093680B400BB1012000E055
:10098000002070470146886880B270470246002008
:10099000D3680B400BB1012000E0002070470146F6
:1009A000C86880B2704701617047416170470AB101
:1009B000016100E041617047C16070474FF48032CF
:1009C0000A4382618161826182698269704702465D
:1009D0000020434B18684FF68073184040EA02101D
:1009E00008433F4B186070473E49C8617047F0B5F7
:1009F0000A46002300240021002500F00046B6F13D
:100A0000004F02D1364EF16901E0354E7168C0F3F6
:100A1000034583B200F44016B6F5401F08D121F01B
:100A200070612F4E766826F070662D4F7E6012E062
:100A300000F48016B6F5801F06D1032606FA05F4E9
:100A4000A14341F0706106E0460D360103FA06F657
:100A5000B14341F0706122B1460D360103FA06F64A
:100A6000314300F00046B6F1004F02D11C4EF16157
:100A700001E01B4E7160F0BD30B500228B071C0FEA
:100A80000F2303FA04F2164B08338C1053F824306A
:100A90009343134C08348D1044F8253023468C10B2
:100AA00053F824308C07240F00FA04F423430C4C31
:100AB00008348D1044F8253030BD0A49DC31086017
:100AC0007047000000080140000C01400010014088
:100AD0000014014000180140001C014000200140AA
:100AE000000001400000204210B50121080700F07D
:100AF000F6F900214FF0805000F0F1F910BD2A49BD
:100B00000862704728490861704701460020274A5B
:100B1000106820F0E0000843106070472249A031BF
:100B20000860704710B502460020204B186820F07E
:100B30000300104318601E4B1B6843F004031C4C59
:100B40002360012901D130BF00E020BF184B1B6892
:100B500023F00403164C236010BD1448006840F0D5
:100B60000400124908600846006840F0020008606E
:100B70000F48006840F004000D49086000BF00BF46
:100B800030BF704701460020084A52680A400AB147
:100B9000012000E0002070470449096841EA800113
:100BA000024A11607047000000000E4200700040D1
:100BB00010ED00E0DF48006840F00100DD4908600A
:100BC00008464068DC490840DA4948600846006841
:100BD000DA490840D74908600846006820F48020B8
:100BE00008600846406820F4FE0048604FF41F008B
:100BF00088607047CF49096821F48031CD4A11607F
:100C00001146096821F480211160B0F5803F03D0BE
:100C1000B0F5802F0ED106E0C649096841F4803155
:100C2000C44A116007E0C349096841F4A021C14AE0
:100C3000116000E000BF00BF704710B50146002200
:100C4000002300204A11012A02D1BA4C236806E091
:100C5000022A02D1B74C236A01E0B64C636A01F064
:100C60001F02012494401C400CB1012000E0002030
:100C700010BD38B5002000900024002500BF3120B1
:100C8000FFF7DBFF05460098401C00900098B0F588
:100C9000A06F01D0002DF2D03120FFF7CEFF08B1B8
:100CA000012400E00024204638BD01460020A14A6E
:100CB000106820F0F80040EAC10010607047A049B9
:100CC00008607047024600209A4B586820F47C1058
:100CD00042EA01031843974B5860704798490866E9
:100CE000704701460020934A506820F003000843F3
:100CF000506070478F48406800F00C007047014614
:100D000000208C4A506820F0F00008435060704783
:100D100001460020874A506820F4E0600843506094
:100D2000704701460020834A506820F4605040EA32
:100D3000C1005060704729B17E4A527A02437D4B10
:100D40005A7204E07B4A527A82437A4B5A72704755
:100D50007B49D8310860704701460020754A5068C9
:100D600020F440400843506070470021714A20320F
:100D70001170704A82F82010012802D004280AD18C
:100D800004E001216B4A2032117005E00521694A17
:100D90002032117000E000BF00BF70476949086051
:100DA00070476449096A0143624A116270476549A4
:100DB00044390860704730B5002100220024002328
:100DC0005C4D6D6805F00C0121B1042905D008299E
:100DD00023D105E05C4D056022E05B4D05601FE01E
:100DE000544D6D6805F47012524D6D6805F48034F1
:100DF000022505EB92421CB9544D554305600BE0AA
:100E00004C4D6D6805F400351DB1504D55430560DE
:100E100002E04D4D5543056002E04B4D056000BFBB
:100E200000BF444D6D6805F0F0010909484D6B5C49
:100E30000568DD4045603F4D6D6805F4E061090AD5
:100E4000434D6B5C4568DD4085603A4D6D6805F447
:100E50006051C90A3E4D6B5C4568DD40C560354D4B
:100E60006D6805F44041890B3A4D6B5CC568B5FB74
:100E7000F3F5056130BD29B12E4A526902432D4B6D
:100E80005A6104E02B4A526982432A4B5A617047E7
:100E900029B1284A92690243264B9A6104E0254A07
:100EA00092698243234B9A61704729B1214AD269E2
:100EB0000243204BDA6104E01E4AD26982431D4B93
:100EC000DA61704729B11B4AD2680243194BDA60D4
:100ED00004E0184AD2688243164BDA60704729B1A1
:100EE000144A12690243134B1A6104E0114A126951
:100EF0008243104B1A6170471249403908607047AD
:100F00000F49C86470470B49C87170470948406A67
:100F100040F0807007494862704701460020054A4A
:100F200092680A400AB1012000E0002070470149A0
:100F300088727047001002400000FFF8FFFFF6FEC5
:100F4000000042428004424200127A0000093D0043
:100F5000140000202400002029B1504A12880243C6
:100F60004E4B1A8004E04D4A128882434B4B1A8044
:100F700070474A48001D008840F010004749091D8D
:100F8000088070474548001D00884FF6EF71084003
:100F90004249091D08807047002140481C300188E3
:100FA000001F008841EA0040704700B50246FFF785
:100FB000E0FF100C394918310880091D0A80FFF73D
:100FC000E1FF00BD00B50246FFF7D3FFC2F30340C7
:100FD000324908310880091D0A80FFF7D3FF00BDA0
:100FE00000B50246FFF7C5FF100C2C4920310880E0
:100FF000091D0A80FFF7C6FF00BD002027491031F8
:1010000009880907080B25491431098808437047E6
:1010100000BF2248001D008800F020000028F8D002
:1010200070471E48001D00884FF6F77108401B49A5
:10103000091D088000BF1948001D008800F0080045
:101040000028F8D0704701460020144A121D12886B
:101050000A400AB1012000E0002070470F49091D35
:10106000098881430D4A121D1180704701460020F6
:101070000A4A121D12880A40D0B2084A12880A4051
:1010800012B108B1012000E0002070470349091D9A
:1010900009888143014A121D1180704700280040D1
:1010A00010B50446FB48844209D101218803FFF7AB
:1010B00009FF00214FF48040FFF704FF32E0F648BB
:1010C000844209D101214804FFF709FF00214FF4B0
:1010D0000030FFF704FF25E0F048844209D10121E8
:1010E0008804FFF7FCFE00214FF48020FFF7F7FE95
:1010F00018E0EB48844209D10121C804FFF7EFFE54
:1011000000214FF40020FFF7EAFE0BE0E54884429F
:1011100008D101210805FFF7E2FE00214FF48010FD
:10112000FFF7DDFE10BD2DE9F04786B005460E46FF
:101130000024A24600BFA1460027B08900B100BF2D
:101140002F462C8A4CF6FF700440F08804432C8212
:10115000AC894EF6F3100440B08831890843718998
:1011600008430443AC81AC8A4FF6FF400440B08989
:101170000443AC8201A8FFF71EFEC648874202D195
:10118000DDF810A001E0DDF80CA0A88900F4004013
:1011900040B10AEBCA0000EB0A1031684900B0FB0D
:1011A000F1F807E00AEBCA0000EB0A103168890089
:1011B000B0FBF1F86420B8FBF0F0040120096421D1
:1011C00001FB1089A88900F4004040B1322000EBF7
:1011D000C900B0FBF1F000F00700044308E0322042
:1011E00000EB09106421B0FBF1F000F00F000443A4
:1011F0002C8106B0BDE8F0874FF416510160002144
:101200008180C18001810C21418100218181704751
:1012100010B502460020108A4FF2FF0318400B88D9
:101220004C8823438C882343CC8823431843108263
:1012300010BD0021018041808180C180704721B1B3
:10124000828942F40052828104E082894DF6FF7364
:101250001A4082817047F0B503460024002600251D
:10126000002040F66A17B94200D100BF1846C1F30A
:10127000421401F01F06012707FA06F5012C01D1DF
:101280000C3004E0022C01D1103000E014301AB10F
:1012900007682F43076002E00768AF430760F0BDAF
:1012A0001AB1838A0B43838202E0838A8B43838251
:1012B0007047028A4FF6F0731A400282028A0A438C
:1012C0000282704782894FF2FF731A4082818289BD
:1012D0000A438281704721B1828942F002028281F1
:1012E00004E082894FF6FD731A4082817047028ABA
:1012F0004FF6DF731A400282028A0A430282704765
:1013000021B1028A42F48042028204E0028A4BF652
:10131000FF731A4002827047C1F30802828070474F
:1013200001468888C0F308007047818941F00101B7
:1013300081817047028BD2B20283028B42EA012282
:1013400002837047028B02F47F420283028B0A43BE
:101350000283704721B1828A42F02002828204E037
:10136000828A4FF6DF731A408282704721B1828AE7
:1013700042F01002828204E0828A4FF6EF731A4034
:101380008282704721B1828A42F00802828204E0A0
:10139000828A4FF6F7731A408282704721B18289A0
:1013A00042F40042828103E08289C2F30E0282810C
:1013B000704721B1828A42F40062828204E0828A0C
:1013C0004FF2FF731A4082827047828A4FF6FB7396
:1013D0001A408282828A0A438282704721B1828ABD
:1013E00042F00202828204E0828A4FF6FD731A40C4
:1013F0008282704702460020B1F5007F00D100BF15
:1014000013880B400BB1012000E00020704701F46D
:101410000072B2F5007F00D100BFCA43028070475E
:1014200070B50246002400230025002040F66A160D
:10143000B14200D100BFC1F3421501F01F030126E4
:1014400006FA03F3012D02D19689334006E0022DFE
:1014500002D1168A334001E0968A33400C120126ED
:1014600006FA04F41688344013B10CB1012000E0F0
:10147000002070BD10B50022002340F66A14A1427E
:1014800000D100BF0A1201249440A3B2DC430480BF
:1014900010BD0000003801400044004000480040FA
:1014A000004C00400050004010B56FF00400FFF702
:1014B000ECF82E4800682E49B0FBF1F02D49087079
:1014C0000846007800EB4001C1EBC0104FF6FF71F9
:1014D00001EAC0002849088010BD0146254A12785B
:1014E0004A434FF0E0235A6100229A611A4612697A
:1014F00042F001021A6100BF4FF0E022106900F0D3
:1015000001021AB100F48032002AF5D04FF0E02237
:10151000126922F001024FF0E0231A6100229A6161
:1015200070470146144A12884A434FF0E0235A613B
:1015300000229A611A46126942F001021A6100BF44
:101540004FF0E022106900F001021AB100F480327D
:10155000002AF5D04FF0E022126922F001024FF08C
:10156000E0231A6100229A61704700000000002009
:1015700000127A00280000202A00002010B54FF445
:10158000A060FFF733F810BD014600BF704700BFF1
:101590004B4A128802F04002002AF9D0C2B2484BEE
:1015A0001B1D1A80704710B586B00446012144F215
:1015B0000400FFF76DFC4248FFF772FD4FF4007026
:1015C000ADF8140003208DF8160018208DF81700D0
:1015D00005A93C48FFF73AF94FF48060ADF81400D4
:1015E00004208DF8170005A93648FFF72FF92520AC
:1015F0008DF8000003208DF801008DF80200012015
:101600008DF803006846FEF7F6FF01940020ADF860
:101610000800ADF80A00ADF80C00ADF810000C2081
:10162000ADF80E0001A92648FFF77DFD012240F22A
:1016300025512348FFF70FFE01212148FFF7FFFD49
:1016400006B010BD10B540F225511D48FFF7E8FE69
:1016500010B31B48FFF764FEC4B21B48008800F4B7
:101660000040C8B91848008800F4804060B10A2CD6
:1016700003D000201449088020E01348008840F47B
:1016800000401149088019E00D2C06D10E48008851
:1016900040F480400C49088010E00B480088C0F3FB
:1016A0000D000A490C5408480088401C064908806F
:1016B00008460088C72801DD0020088010BD000012
:1016C00000380140000801403000002034000020B4
:1016D00008B503208DF8000000208DF801008DF87A
:1016E000020001208DF803006846FEF784FF08BD64
:1016F000F0B503460C461546642093FBF0F0C6B2E5
:10170000642093FBF0F700FB1730C1B2132E02DD0B
:1017100001F16400C1B20846CF1701EB977701EBE6
:10172000A707BAB2072092FBF0F700FB172082B29E
:101730005719601EDFF8F8C21CF80000384482B266
:10174000CF1701EB9777BF10A1EB87071FB9032CC9
:1017500001DA501E82B2072092FBF0F700FB17203F
:10176000C0B2F0BD0146CA1701EB92729210A1EB14
:10177000820292B9642091FBF0F200FB121050B982
:101780004FF4C87091FBF0F200FB121008B9012071
:1017900070470020FCE70120FAE70020F8E770B569
:1017A000002600240025FFF7F7FB0646A148B6FBFC
:1017B000F0F4A1480088A0423CD09F490C8040F240
:1017C000B27510E02846FFF7CDFF40B1B4F5B77F02
:1017D00002D3A4F5B77404E0681C85B206E0A4F255
:1017E0006D14681C85B2B4F5B67FEBD800BF934882
:1017F0008580002516E091498888FFF7B3FF30B156
:10180000012D04D11D2C01D31D3C09E00CE08C48B6
:10181000405DA04203D88A48405D241A00E003E0FE
:10182000681C85B21C2CE6D200BF681C83498871F5
:10183000601CC8717F48B6FBF0F100FB11644FF4E7
:101840006160B4FBF0F07D4908704FF46160B4FB57
:10185000F0F100FB11403C21B0FBF1F077494870FA
:101860004FF46160B4FBF0F100FB11403C21B0FB90
:10187000F1F201FB1200714988700B46DA7999790F
:101880009888FFF735FF6D490872002070BD2DE97B
:10189000F05F06460F4690469946DDE90AAB002404
:1018A00040F2B270864203DB40F63300864202DD2E
:1018B0000120BDE8F09F40F2B2750AE02846FFF72C
:1018C00051FF10B15F48044401E05F480444681CC4
:1018D00085B2B542F2DB781EC7B2002510E0584849
:1018E000405D40F2A321484304EBC0143046FFF7AB
:1018F00039FF18B1012D01D14E480444681C85B24E
:10190000BD42ECDBA8F1010040F2A321484304EB07
:10191000C014C9EB4910C0EB092004EB0014CAEB5A
:101920000A1004EB80045C4401214FF0C050FFF723
:10193000BCFA0120FFF7E3F82046FFF736FBFFF77C
:1019400067FBFFF72CFF0020B3E71CB50024042041
:10195000FEF7EFFE45F25001884246D001214FF0DC
:10196000C050FFF7A2FA0120FFF7C9F8FEF7ACFE5E
:101970000120FFF7FAF904E0601CC4B20A20FFF767
:10198000D0FD4120FFF759F90028F5D0FA2C01DBF2
:1019900001201CBD4FF48070FFF703FA0120FFF710
:1019A00006FAFFF735FBFFF73CFB01210846FFF77E
:1019B000D3FAFFF72DFBFFF7DCFA47F6FF70FFF7CE
:1019C00001FBFFF725FB192000900D2310220721B2
:1019D00001904FF4FC60FFF75AFFFFF7D3FA45F28E
:1019E00050010420FEF799FE07E0FFF71AFB0121E2
:1019F0000846FFF7B1FAFFF70BFBFFF769FEFFF7A9
:101A0000CEFE0020C5E710B50120FFF72FFB08B17F
:101A1000FFF7C5FE0220FFF729FB10B10220FFF7F8
:101A200035FB0520FFF732FBFFF7F2FA10BD00008F
:101A3000BC1C00088051010032000020FC00002086
:101A4000C81C00080085E2018033E10170470000F6
:101A50000FB4044910B503AA029800F0D1F810BCE5
:101A60005DF814FB2C0000202DE9F0410E460446E1
:101A7000002020622046E168884730B3252805D041
:101A8000D4E901219047206A401CF2E7E168204632
:101A900000278847050018D0A5F14100192802D871
:101AA00020354FF400673246294620462760FEF76E
:101AB00079FB40B1012804D0F61D26F00706083650
:101AC000D8E7361DD6E72846DAE7206ABDE8F08178
:101AD0002DE9F0410646002410687529314615A508
:101AE00010D0AFF30080002802DA404212A507E0D0
:101AF00031688A0701D511A502E0490704D510A570
:101B0000012401E0AFF3008000210A2306F124073D
:101B100007E0B0FBF3F203FB1200303078541046BC
:101B2000491C0028F5D123462A463046BDE8F0413D
:101B300000F00CB8000000002D0000002B00000099
:101B40002000000070477047704770472DE9F0474C
:101B50000D4699469246044600F12408016888061D
:101B600004D5E06921F01001216000E00120A842C5
:101B700001DD471B00E00027A1697A1902EB09008B
:101B8000081AA0612078C00602D42046AFF3008076
:101B9000002608E0D4E901211AF806009047206ADF
:101BA000401C761C20624E45F4DB2078C0060AD526
:101BB0002046AFF3008006E0D4E9012130209047B1
:101BC000206A401C2062381EA7F10107F4DC07E000
:101BD000D4E9012118F805009047206A401C2062D2
:101BE000281EA5F10105F3DC2046AFF30080207824
:101BF000000602D50220BDE8F0870120FBE70000C7
:101C0000074B70B50D467B4400F011F8044628469A
:101C100000F020F810B14FF0FF3070BD204670BDCD
:101C200085F9FFFF01694A1C02610878704700B519
:101C30008FB0CDE901310021059105497944CDE905
:101C4000031011466846FFF70FFF0FB000BD0000FC
:101C5000E5FFFFFF007B00F080007047754600F055
:101C600029F8AE4605006946534620F00700854630
:101C700018B020B5FEF7A8FCBDE820404FF00006E4
:101C80004FF000074FF000084FF0000B21F0070164
:101C9000AC46ACE8C009ACE8C009ACE8C009ACE8A7
:101CA000C0098D4670470446AFF300802046FEF71A
:101CB0008BFA00000048704708010020000303066B
:101CC00001040602050003051F1C1F1E1F1E1F1F07
:101CD0001E1F1E1FF41C000800000020340000001E
:101CE0006C010008281D00083400002034070000A3
:101CF0008801000800A24A04000000000000000063
:101D000001020304060708090000000001020304A1
:101D10000102030406070809020406080000000087
:081D20000000000000000000BB
:0400000508000131BD
:00000001FF
